{
  "_format": "hh-sol-artifact-1",
  "contractName": "Token",
  "sourceName": "contracts/token/Token.sol",
  "abi": [
    {
      "inputs": [],
      "stateMutability": "nonpayable",
      "type": "constructor"
    },
    {
      "inputs": [
        {
          "internalType": "address",
          "name": "account",
          "type": "address"
        }
      ],
      "name": "balanceOf",
      "outputs": [
        {
          "internalType": "uint256",
          "name": "",
          "type": "uint256"
        }
      ],
      "stateMutability": "view",
      "type": "function"
    },
    {
      "inputs": [],
      "name": "name",
      "outputs": [
        {
          "internalType": "string",
          "name": "",
          "type": "string"
        }
      ],
      "stateMutability": "view",
      "type": "function"
    },
    {
      "inputs": [],
      "name": "owner",
      "outputs": [
        {
          "internalType": "address",
          "name": "",
          "type": "address"
        }
      ],
      "stateMutability": "view",
      "type": "function"
    },
    {
      "inputs": [],
      "name": "symbol",
      "outputs": [
        {
          "internalType": "string",
          "name": "",
          "type": "string"
        }
      ],
      "stateMutability": "view",
      "type": "function"
    },
    {
      "inputs": [],
      "name": "totalSupply",
      "outputs": [
        {
          "internalType": "uint256",
          "name": "",
          "type": "uint256"
        }
      ],
      "stateMutability": "view",
      "type": "function"
    },
    {
      "inputs": [
        {
          "internalType": "address",
          "name": "to",
          "type": "address"
        },
        {
          "internalType": "uint256",
          "name": "amount",
          "type": "uint256"
        }
      ],
      "name": "transfer",
      "outputs": [],
      "stateMutability": "nonpayable",
      "type": "function"
    }
  ],
  "bytecode": "0x60806040526040518060400160405280601081526020017f4d79206861726468617420546f6b656e000000000000000000000000000000008152506000908051906020019061004f92919061013c565b506040518060400160405280600381526020017f5a535400000000000000000000000000000000000000000000000000000000008152506001908051906020019061009b92919061013c565b50620186a06002553480156100af57600080fd5b50600254600460003373ffffffffffffffffffffffffffffffffffffffff1673ffffffffffffffffffffffffffffffffffffffff1681526020019081526020016000208190555033600360006101000a81548173ffffffffffffffffffffffffffffffffffffffff021916908373ffffffffffffffffffffffffffffffffffffffff160217905550610240565b828054610148906101df565b90600052602060002090601f01602090048101928261016a57600085556101b1565b82601f1061018357805160ff19168380011785556101b1565b828001600101855582156101b1579182015b828111156101b0578251825591602001919060010190610195565b5b5090506101be91906101c2565b5090565b5b808211156101db5760008160009055506001016101c3565b5090565b600060028204905060018216806101f757607f821691505b6020821081141561020b5761020a610211565b5b50919050565b7f4e487b7100000000000000000000000000000000000000000000000000000000600052602260045260246000fd5b6108f88061024f6000396000f3fe608060405234801561001057600080fd5b50600436106100625760003560e01c806306fdde031461006757806318160ddd1461008557806370a08231146100a35780638da5cb5b146100d357806395d89b41146100f1578063a9059cbb1461010f575b600080fd5b61006f61012b565b60405161007c919061061a565b60405180910390f35b61008d6101b9565b60405161009a919061069a565b60405180910390f35b6100bd60048036038101906100b89190610520565b6101bf565b6040516100ca919061069a565b60405180910390f35b6100db610208565b6040516100e891906105ff565b60405180910390f35b6100f961022e565b604051610106919061061a565b60405180910390f35b61012960048036038101906101249190610549565b6102bc565b005b60008054610138906107ca565b80601f0160208091040260200160405190810160405280929190818152602001828054610164906107ca565b80156101b15780601f10610186576101008083540402835291602001916101b1565b820191906000526020600020905b81548152906001019060200180831161019457829003601f168201915b505050505081565b60025481565b6000600460008373ffffffffffffffffffffffffffffffffffffffff1673ffffffffffffffffffffffffffffffffffffffff168152602001908152602001600020549050919050565b600360009054906101000a900473ffffffffffffffffffffffffffffffffffffffff1681565b6001805461023b906107ca565b80601f0160208091040260200160405190810160405280929190818152602001828054610267906107ca565b80156102b45780601f10610289576101008083540402835291602001916102b4565b820191906000526020600020905b81548152906001019060200180831161029757829003601f168201915b505050505081565b6102fc6040518060400160405280601481526020017f746f203a2025732c20616d6f756e74203a202564000000000000000000000000815250838361042e565b80600460003373ffffffffffffffffffffffffffffffffffffffff1673ffffffffffffffffffffffffffffffffffffffff16815260200190815260200160002054101561037e576040517f08c379a00000000000000000000000000000000000000000000000000000000081526004016103759061067a565b60405180910390fd5b80600460003373ffffffffffffffffffffffffffffffffffffffff1673ffffffffffffffffffffffffffffffffffffffff16815260200190815260200160002060008282546103cd9190610727565b9250508190555080600460008473ffffffffffffffffffffffffffffffffffffffff1673ffffffffffffffffffffffffffffffffffffffff168152602001908152602001600020600082825461042391906106d1565b925050819055505050565b6104c88383836040516024016104469392919061063c565b6040516020818303038152906040527f07c81217000000000000000000000000000000000000000000000000000000007bffffffffffffffffffffffffffffffffffffffffffffffffffffffff19166020820180517bffffffffffffffffffffffffffffffffffffffffffffffffffffffff83818316178352505050506104cd565b505050565b60008151905060006a636f6e736f6c652e6c6f679050602083016000808483855afa5050505050565b60008135905061050581610894565b92915050565b60008135905061051a816108ab565b92915050565b60006020828403121561053257600080fd5b6000610540848285016104f6565b91505092915050565b6000806040838503121561055c57600080fd5b600061056a858286016104f6565b925050602061057b8582860161050b565b9150509250929050565b61058e8161075b565b82525050565b600061059f826106b5565b6105a981856106c0565b93506105b9818560208601610797565b6105c28161085a565b840191505092915050565b60006105da6011836106c0565b91506105e58261086b565b602082019050919050565b6105f98161078d565b82525050565b60006020820190506106146000830184610585565b92915050565b600060208201905081810360008301526106348184610594565b905092915050565b600060608201905081810360008301526106568186610594565b90506106656020830185610585565b61067260408301846105f0565b949350505050565b60006020820190508181036000830152610693816105cd565b9050919050565b60006020820190506106af60008301846105f0565b92915050565b600081519050919050565b600082825260208201905092915050565b60006106dc8261078d565b91506106e78361078d565b9250827fffffffffffffffffffffffffffffffffffffffffffffffffffffffffffffffff0382111561071c5761071b6107fc565b5b828201905092915050565b60006107328261078d565b915061073d8361078d565b9250828210156107505761074f6107fc565b5b828203905092915050565b60006107668261076d565b9050919050565b600073ffffffffffffffffffffffffffffffffffffffff82169050919050565b6000819050919050565b60005b838110156107b557808201518184015260208101905061079a565b838111156107c4576000848401525b50505050565b600060028204905060018216806107e257607f821691505b602082108114156107f6576107f561082b565b5b50919050565b7f4e487b7100000000000000000000000000000000000000000000000000000000600052601160045260246000fd5b7f4e487b7100000000000000000000000000000000000000000000000000000000600052602260045260246000fd5b6000601f19601f8301169050919050565b7f4e6f7420656e6f75676820746f6b656e73000000000000000000000000000000600082015250565b61089d8161075b565b81146108a857600080fd5b50565b6108b48161078d565b81146108bf57600080fd5b5056fea264697066735822122027fc09c1d9d17badc1c5f9a896148402cdc82fa247c2ddbe92c7aa9a24798ae464736f6c63430008040033",
  "linkReferences": {},
  "deployedLinkReferences": {}
}