{
  "_format": "hh-sol-artifact-1",
  "contractName": "Card",
  "sourceName": "contracts/token/Card.sol",
  "abi": [
    {
      "inputs": [],
      "stateMutability": "nonpayable",
      "type": "constructor"
    },
    {
      "anonymous": false,
      "inputs": [
        {
          "indexed": true,
          "internalType": "address",
          "name": "owner",
          "type": "address"
        },
        {
          "indexed": true,
          "internalType": "address",
          "name": "approved",
          "type": "address"
        },
        {
          "indexed": true,
          "internalType": "uint256",
          "name": "tokenId",
          "type": "uint256"
        }
      ],
      "name": "Approval",
      "type": "event"
    },
    {
      "anonymous": false,
      "inputs": [
        {
          "indexed": true,
          "internalType": "address",
          "name": "owner",
          "type": "address"
        },
        {
          "indexed": true,
          "internalType": "address",
          "name": "operator",
          "type": "address"
        },
        {
          "indexed": false,
          "internalType": "bool",
          "name": "approved",
          "type": "bool"
        }
      ],
      "name": "ApprovalForAll",
      "type": "event"
    },
    {
      "anonymous": false,
      "inputs": [
        {
          "indexed": true,
          "internalType": "address",
          "name": "from",
          "type": "address"
        },
        {
          "indexed": true,
          "internalType": "address",
          "name": "to",
          "type": "address"
        },
        {
          "indexed": true,
          "internalType": "uint256",
          "name": "tokenId",
          "type": "uint256"
        }
      ],
      "name": "Transfer",
      "type": "event"
    },
    {
      "inputs": [
        {
          "internalType": "address",
          "name": "to",
          "type": "address"
        },
        {
          "internalType": "uint256",
          "name": "tokenId",
          "type": "uint256"
        }
      ],
      "name": "approve",
      "outputs": [],
      "stateMutability": "nonpayable",
      "type": "function"
    },
    {
      "inputs": [
        {
          "internalType": "address",
          "name": "owner",
          "type": "address"
        }
      ],
      "name": "balanceOf",
      "outputs": [
        {
          "internalType": "uint256",
          "name": "",
          "type": "uint256"
        }
      ],
      "stateMutability": "view",
      "type": "function"
    },
    {
      "inputs": [
        {
          "internalType": "uint256",
          "name": "",
          "type": "uint256"
        }
      ],
      "name": "cards",
      "outputs": [
        {
          "internalType": "string",
          "name": "name",
          "type": "string"
        },
        {
          "internalType": "string",
          "name": "color",
          "type": "string"
        }
      ],
      "stateMutability": "view",
      "type": "function"
    },
    {
      "inputs": [
        {
          "internalType": "uint256",
          "name": "",
          "type": "uint256"
        }
      ],
      "name": "colors",
      "outputs": [
        {
          "internalType": "string",
          "name": "",
          "type": "string"
        }
      ],
      "stateMutability": "view",
      "type": "function"
    },
    {
      "inputs": [
        {
          "internalType": "uint256",
          "name": "tokenId",
          "type": "uint256"
        }
      ],
      "name": "getApproved",
      "outputs": [
        {
          "internalType": "address",
          "name": "",
          "type": "address"
        }
      ],
      "stateMutability": "view",
      "type": "function"
    },
    {
      "inputs": [
        {
          "internalType": "uint256",
          "name": "index",
          "type": "uint256"
        }
      ],
      "name": "getCardInfo",
      "outputs": [
        {
          "components": [
            {
              "internalType": "string",
              "name": "name",
              "type": "string"
            },
            {
              "internalType": "string",
              "name": "color",
              "type": "string"
            }
          ],
          "internalType": "struct Card.Card",
          "name": "",
          "type": "tuple"
        }
      ],
      "stateMutability": "view",
      "type": "function"
    },
    {
      "inputs": [
        {
          "internalType": "address",
          "name": "owner",
          "type": "address"
        },
        {
          "internalType": "address",
          "name": "operator",
          "type": "address"
        }
      ],
      "name": "isApprovedForAll",
      "outputs": [
        {
          "internalType": "bool",
          "name": "",
          "type": "bool"
        }
      ],
      "stateMutability": "view",
      "type": "function"
    },
    {
      "inputs": [
        {
          "internalType": "string",
          "name": "_name",
          "type": "string"
        },
        {
          "internalType": "address",
          "name": "_account",
          "type": "address"
        }
      ],
      "name": "mint",
      "outputs": [],
      "stateMutability": "nonpayable",
      "type": "function"
    },
    {
      "inputs": [],
      "name": "name",
      "outputs": [
        {
          "internalType": "string",
          "name": "",
          "type": "string"
        }
      ],
      "stateMutability": "view",
      "type": "function"
    },
    {
      "inputs": [],
      "name": "owner",
      "outputs": [
        {
          "internalType": "address",
          "name": "",
          "type": "address"
        }
      ],
      "stateMutability": "view",
      "type": "function"
    },
    {
      "inputs": [
        {
          "internalType": "uint256",
          "name": "tokenId",
          "type": "uint256"
        }
      ],
      "name": "ownerOf",
      "outputs": [
        {
          "internalType": "address",
          "name": "",
          "type": "address"
        }
      ],
      "stateMutability": "view",
      "type": "function"
    },
    {
      "inputs": [
        {
          "internalType": "address",
          "name": "from",
          "type": "address"
        },
        {
          "internalType": "address",
          "name": "to",
          "type": "address"
        },
        {
          "internalType": "uint256",
          "name": "tokenId",
          "type": "uint256"
        }
      ],
      "name": "safeTransferFrom",
      "outputs": [],
      "stateMutability": "nonpayable",
      "type": "function"
    },
    {
      "inputs": [
        {
          "internalType": "address",
          "name": "from",
          "type": "address"
        },
        {
          "internalType": "address",
          "name": "to",
          "type": "address"
        },
        {
          "internalType": "uint256",
          "name": "tokenId",
          "type": "uint256"
        },
        {
          "internalType": "bytes",
          "name": "_data",
          "type": "bytes"
        }
      ],
      "name": "safeTransferFrom",
      "outputs": [],
      "stateMutability": "nonpayable",
      "type": "function"
    },
    {
      "inputs": [
        {
          "internalType": "address",
          "name": "operator",
          "type": "address"
        },
        {
          "internalType": "bool",
          "name": "approved",
          "type": "bool"
        }
      ],
      "name": "setApprovalForAll",
      "outputs": [],
      "stateMutability": "nonpayable",
      "type": "function"
    },
    {
      "inputs": [
        {
          "internalType": "bytes4",
          "name": "interfaceId",
          "type": "bytes4"
        }
      ],
      "name": "supportsInterface",
      "outputs": [
        {
          "internalType": "bool",
          "name": "",
          "type": "bool"
        }
      ],
      "stateMutability": "view",
      "type": "function"
    },
    {
      "inputs": [],
      "name": "symbol",
      "outputs": [
        {
          "internalType": "string",
          "name": "",
          "type": "string"
        }
      ],
      "stateMutability": "view",
      "type": "function"
    },
    {
      "inputs": [
        {
          "internalType": "uint256",
          "name": "tokenId",
          "type": "uint256"
        }
      ],
      "name": "tokenURI",
      "outputs": [
        {
          "internalType": "string",
          "name": "",
          "type": "string"
        }
      ],
      "stateMutability": "view",
      "type": "function"
    },
    {
      "inputs": [
        {
          "internalType": "address",
          "name": "from",
          "type": "address"
        },
        {
          "internalType": "address",
          "name": "to",
          "type": "address"
        },
        {
          "internalType": "uint256",
          "name": "tokenId",
          "type": "uint256"
        }
      ],
      "name": "transferFrom",
      "outputs": [],
      "stateMutability": "nonpayable",
      "type": "function"
    }
  ],
  "bytecode": "0x60806040526040518060e001604052806040518060400160405280600381526020017f524544000000000000000000000000000000000000000000000000000000000081525081526020016040518060400160405280600481526020017f424c55450000000000000000000000000000000000000000000000000000000081525081526020016040518060400160405280600581526020017f475245454e00000000000000000000000000000000000000000000000000000081525081526020016040518060400160405280600481526020017f50494e4b0000000000000000000000000000000000000000000000000000000081525081526020016040518060400160405280600681526020017f59454c4c4f57000000000000000000000000000000000000000000000000000081525081526020016040518060400160405280600581526020017f424c41434b00000000000000000000000000000000000000000000000000000081525081526020016040518060400160405280600581526020017f57484954450000000000000000000000000000000000000000000000000000008152508152506007906007620001bc929190620002b2565b50348015620001ca57600080fd5b506040518060400160405280600481526020017f43617264000000000000000000000000000000000000000000000000000000008152506040518060400160405280600381526020017f434454000000000000000000000000000000000000000000000000000000000081525081600090805190602001906200024f92919062000319565b5080600190805190602001906200026892919062000319565b50505033600860006101000a81548173ffffffffffffffffffffffffffffffffffffffff021916908373ffffffffffffffffffffffffffffffffffffffff1602179055506200049c565b82805482825590600052602060002090810192821562000306579160200282015b8281111562000305578251829080519060200190620002f492919062000319565b5091602001919060010190620002d3565b5b509050620003159190620003aa565b5090565b828054620003279062000437565b90600052602060002090601f0160209004810192826200034b576000855562000397565b82601f106200036657805160ff191683800117855562000397565b8280016001018555821562000397579182015b828111156200039657825182559160200191906001019062000379565b5b509050620003a69190620003d2565b5090565b5b80821115620003ce5760008181620003c49190620003f1565b50600101620003ab565b5090565b5b80821115620003ed576000816000905550600101620003d3565b5090565b508054620003ff9062000437565b6000825580601f1062000413575062000434565b601f016020900490600052602060002090810190620004339190620003d2565b5b50565b600060028204905060018216806200045057607f821691505b602082108114156200046757620004666200046d565b5b50919050565b7f4e487b7100000000000000000000000000000000000000000000000000000000600052602260045260246000fd5b6133ad80620004ac6000396000f3fe608060405234801561001057600080fd5b50600436106101165760003560e01c80638da5cb5b116100a2578063a22cb46511610071578063a22cb46514610306578063b88d4fde14610322578063bd11f69d1461033e578063c87b56dd1461036e578063e985e9c51461039e57610116565b80638da5cb5b146102695780638dc107681461028757806395d89b41146102b8578063970129be146102d657610116565b80631c351a9d116100e95780631c351a9d146101b557806323b872dd146101d157806342842e0e146101ed5780636352211e1461020957806370a082311461023957610116565b806301ffc9a71461011b57806306fdde031461014b578063081812fc14610169578063095ea7b314610199575b600080fd5b61013560048036038101906101309190612354565b6103ce565b6040516101429190612808565b60405180910390f35b6101536104b0565b6040516101609190612823565b60405180910390f35b610183600480360381019061017e91906123fa565b610542565b60405161019091906127a1565b60405180910390f35b6101b360048036038101906101ae9190612318565b6105c7565b005b6101cf60048036038101906101ca91906123a6565b6106df565b005b6101eb60048036038101906101e69190612212565b610b1d565b005b61020760048036038101906102029190612212565b610b7d565b005b610223600480360381019061021e91906123fa565b610b9d565b60405161023091906127a1565b60405180910390f35b610253600480360381019061024e91906121ad565b610c4f565b6040516102609190612aca565b60405180910390f35b610271610d07565b60405161027e91906127a1565b60405180910390f35b6102a1600480360381019061029c91906123fa565b610d2d565b6040516102af929190612845565b60405180910390f35b6102c0610e71565b6040516102cd9190612823565b60405180910390f35b6102f060048036038101906102eb91906123fa565b610f03565b6040516102fd9190612aa8565b60405180910390f35b610320600480360381019061031b91906122dc565b611089565b005b61033c60048036038101906103379190612261565b61109f565b005b610358600480360381019061035391906123fa565b611101565b6040516103659190612823565b60405180910390f35b610388600480360381019061038391906123fa565b6111ad565b6040516103959190612823565b60405180910390f35b6103b860048036038101906103b391906121d6565b611254565b6040516103c59190612808565b60405180910390f35b60007f80ac58cd000000000000000000000000000000000000000000000000000000007bffffffffffffffffffffffffffffffffffffffffffffffffffffffff1916827bffffffffffffffffffffffffffffffffffffffffffffffffffffffff1916148061049957507f5b5e139f000000000000000000000000000000000000000000000000000000007bffffffffffffffffffffffffffffffffffffffffffffffffffffffff1916827bffffffffffffffffffffffffffffffffffffffffffffffffffffffff1916145b806104a957506104a8826112e8565b5b9050919050565b6060600080546104bf90612d68565b80601f01602080910402602001604051908101604052809291908181526020018280546104eb90612d68565b80156105385780601f1061050d57610100808354040283529160200191610538565b820191906000526020600020905b81548152906001019060200180831161051b57829003601f168201915b5050505050905090565b600061054d82611352565b61058c576040517f08c379a000000000000000000000000000000000000000000000000000000000815260040161058390612a28565b60405180910390fd5b6004600083815260200190815260200160002060009054906101000a900473ffffffffffffffffffffffffffffffffffffffff169050919050565b60006105d282610b9d565b90508073ffffffffffffffffffffffffffffffffffffffff168373ffffffffffffffffffffffffffffffffffffffff161415610643576040517f08c379a000000000000000000000000000000000000000000000000000000000815260040161063a90612a68565b60405180910390fd5b8073ffffffffffffffffffffffffffffffffffffffff166106626113be565b73ffffffffffffffffffffffffffffffffffffffff16148061069157506106908161068b6113be565b611254565b5b6106d0576040517f08c379a00000000000000000000000000000000000000000000000000000000081526004016106c7906129a8565b60405180910390fd5b6106da83836113c6565b505050565b3373ffffffffffffffffffffffffffffffffffffffff16600860009054906101000a900473ffffffffffffffffffffffffffffffffffffffff1673ffffffffffffffffffffffffffffffffffffffff161461076f576040517f08c379a000000000000000000000000000000000000000000000000000000000815260040161076690612928565b60405180910390fd5b6000600680549050905060008060078054905042338460405160200161079793929190612ae5565b6040516020818303038152906040528051906020012060001c6107ba9190612e14565b90506006604051806040016040528087815260200160078481548110610809577f4e487b7100000000000000000000000000000000000000000000000000000000600052603260045260246000fd5b90600052602060002001805461081e90612d68565b80601f016020809104026020016040519081016040528092919081815260200182805461084a90612d68565b80156108975780601f1061086c57610100808354040283529160200191610897565b820191906000526020600020905b81548152906001019060200180831161087a57829003601f168201915b5050505050815250908060018154018082558091505060019003906000526020600020906002020160009091909190915060008201518160000190805190602001906108e4929190611fb7565b506020820151816001019080519060200190610901929190611fb7565b505050610b0c6040518060400160405280601581526020017f6e616d65203a2025732c20636f6c6f72203a2025730000000000000000000000815250600660016006805490506109519190612c7e565b81548110610988577f4e487b7100000000000000000000000000000000000000000000000000000000600052603260045260246000fd5b906000526020600020906002020160000180546109a490612d68565b80601f01602080910402602001604051908101604052809291908181526020018280546109d090612d68565b8015610a1d5780601f106109f257610100808354040283529160200191610a1d565b820191906000526020600020905b815481529060010190602001808311610a0057829003601f168201915b505050505060066001600680549050610a369190612c7e565b81548110610a6d577f4e487b7100000000000000000000000000000000000000000000000000000000600052603260045260246000fd5b90600052602060002090600202016001018054610a8990612d68565b80601f0160208091040260200160405190810160405280929190818152602001828054610ab590612d68565b8015610b025780601f10610ad757610100808354040283529160200191610b02565b820191906000526020600020905b815481529060010190602001808311610ae557829003601f168201915b505050505061147f565b610b16848461151e565b5050505050565b610b2e610b286113be565b826116f8565b610b6d576040517f08c379a0000000000000000000000000000000000000000000000000000000008152600401610b6490612a88565b60405180910390fd5b610b788383836117d6565b505050565b610b988383836040518060200160405280600081525061109f565b505050565b6000806002600084815260200190815260200160002060009054906101000a900473ffffffffffffffffffffffffffffffffffffffff169050600073ffffffffffffffffffffffffffffffffffffffff168173ffffffffffffffffffffffffffffffffffffffff161415610c46576040517f08c379a0000000000000000000000000000000000000000000000000000000008152600401610c3d906129e8565b60405180910390fd5b80915050919050565b60008073ffffffffffffffffffffffffffffffffffffffff168273ffffffffffffffffffffffffffffffffffffffff161415610cc0576040517f08c379a0000000000000000000000000000000000000000000000000000000008152600401610cb7906129c8565b60405180910390fd5b600360008373ffffffffffffffffffffffffffffffffffffffff1673ffffffffffffffffffffffffffffffffffffffff168152602001908152602001600020549050919050565b600860009054906101000a900473ffffffffffffffffffffffffffffffffffffffff1681565b60068181548110610d3d57600080fd5b9060005260206000209060020201600091509050806000018054610d6090612d68565b80601f0160208091040260200160405190810160405280929190818152602001828054610d8c90612d68565b8015610dd95780601f10610dae57610100808354040283529160200191610dd9565b820191906000526020600020905b815481529060010190602001808311610dbc57829003601f168201915b505050505090806001018054610dee90612d68565b80601f0160208091040260200160405190810160405280929190818152602001828054610e1a90612d68565b8015610e675780601f10610e3c57610100808354040283529160200191610e67565b820191906000526020600020905b815481529060010190602001808311610e4a57829003601f168201915b5050505050905082565b606060018054610e8090612d68565b80601f0160208091040260200160405190810160405280929190818152602001828054610eac90612d68565b8015610ef95780601f10610ece57610100808354040283529160200191610ef9565b820191906000526020600020905b815481529060010190602001808311610edc57829003601f168201915b5050505050905090565b610f0b61203d565b60068281548110610f45577f4e487b7100000000000000000000000000000000000000000000000000000000600052603260045260246000fd5b9060005260206000209060020201604051806040016040529081600082018054610f6e90612d68565b80601f0160208091040260200160405190810160405280929190818152602001828054610f9a90612d68565b8015610fe75780601f10610fbc57610100808354040283529160200191610fe7565b820191906000526020600020905b815481529060010190602001808311610fca57829003601f168201915b5050505050815260200160018201805461100090612d68565b80601f016020809104026020016040519081016040528092919081815260200182805461102c90612d68565b80156110795780601f1061104e57610100808354040283529160200191611079565b820191906000526020600020905b81548152906001019060200180831161105c57829003601f168201915b5050505050815250509050919050565b61109b6110946113be565b8383611a3d565b5050565b6110b06110aa6113be565b836116f8565b6110ef576040517f08c379a00000000000000000000000000000000000000000000000000000000081526004016110e690612a88565b60405180910390fd5b6110fb84848484611baa565b50505050565b6007818154811061111157600080fd5b90600052602060002001600091509050805461112c90612d68565b80601f016020809104026020016040519081016040528092919081815260200182805461115890612d68565b80156111a55780601f1061117a576101008083540402835291602001916111a5565b820191906000526020600020905b81548152906001019060200180831161118857829003601f168201915b505050505081565b60606111b882611352565b6111f7576040517f08c379a00000000000000000000000000000000000000000000000000000000081526004016111ee90612a48565b60405180910390fd5b6000611201611c06565b90506000815111611221576040518060200160405280600081525061124c565b8061122b84611c1d565b60405160200161123c92919061277d565b6040516020818303038152906040525b915050919050565b6000600560008473ffffffffffffffffffffffffffffffffffffffff1673ffffffffffffffffffffffffffffffffffffffff16815260200190815260200160002060008373ffffffffffffffffffffffffffffffffffffffff1673ffffffffffffffffffffffffffffffffffffffff16815260200190815260200160002060009054906101000a900460ff16905092915050565b60007f01ffc9a7000000000000000000000000000000000000000000000000000000007bffffffffffffffffffffffffffffffffffffffffffffffffffffffff1916827bffffffffffffffffffffffffffffffffffffffffffffffffffffffff1916149050919050565b60008073ffffffffffffffffffffffffffffffffffffffff166002600084815260200190815260200160002060009054906101000a900473ffffffffffffffffffffffffffffffffffffffff1673ffffffffffffffffffffffffffffffffffffffff1614159050919050565b600033905090565b816004600083815260200190815260200160002060006101000a81548173ffffffffffffffffffffffffffffffffffffffff021916908373ffffffffffffffffffffffffffffffffffffffff160217905550808273ffffffffffffffffffffffffffffffffffffffff1661143983610b9d565b73ffffffffffffffffffffffffffffffffffffffff167f8c5be1e5ebec7d5bd14f71427d1e84f3dd0314c0f7b2291e5b200ac8c7c3b92560405160405180910390a45050565b6115198383836040516024016114979392919061287c565b6040516020818303038152906040527f2ced7cef000000000000000000000000000000000000000000000000000000007bffffffffffffffffffffffffffffffffffffffffffffffffffffffff19166020820180517bffffffffffffffffffffffffffffffffffffffffffffffffffffffff8381831617835250505050611dca565b505050565b600073ffffffffffffffffffffffffffffffffffffffff168273ffffffffffffffffffffffffffffffffffffffff16141561158e576040517f08c379a000000000000000000000000000000000000000000000000000000000815260040161158590612a08565b60405180910390fd5b61159781611352565b156115d7576040517f08c379a00000000000000000000000000000000000000000000000000000000081526004016115ce90612908565b60405180910390fd5b6115e360008383611df3565b6001600360008473ffffffffffffffffffffffffffffffffffffffff1673ffffffffffffffffffffffffffffffffffffffff16815260200190815260200160002060008282546116339190612bf7565b92505081905550816002600083815260200190815260200160002060006101000a81548173ffffffffffffffffffffffffffffffffffffffff021916908373ffffffffffffffffffffffffffffffffffffffff160217905550808273ffffffffffffffffffffffffffffffffffffffff16600073ffffffffffffffffffffffffffffffffffffffff167fddf252ad1be2c89b69c2b068fc378daa952ba7f163c4a11628f55a4df523b3ef60405160405180910390a46116f460008383611df8565b5050565b600061170382611352565b611742576040517f08c379a000000000000000000000000000000000000000000000000000000000815260040161173990612988565b60405180910390fd5b600061174d83610b9d565b90508073ffffffffffffffffffffffffffffffffffffffff168473ffffffffffffffffffffffffffffffffffffffff1614806117bc57508373ffffffffffffffffffffffffffffffffffffffff166117a484610542565b73ffffffffffffffffffffffffffffffffffffffff16145b806117cd57506117cc8185611254565b5b91505092915050565b8273ffffffffffffffffffffffffffffffffffffffff166117f682610b9d565b73ffffffffffffffffffffffffffffffffffffffff161461184c576040517f08c379a0000000000000000000000000000000000000000000000000000000008152600401611843906128e8565b60405180910390fd5b600073ffffffffffffffffffffffffffffffffffffffff168273ffffffffffffffffffffffffffffffffffffffff1614156118bc576040517f08c379a00000000000000000000000000000000000000000000000000000000081526004016118b390612948565b60405180910390fd5b6118c7838383611df3565b6118d26000826113c6565b6001600360008573ffffffffffffffffffffffffffffffffffffffff1673ffffffffffffffffffffffffffffffffffffffff16815260200190815260200160002060008282546119229190612c7e565b925050819055506001600360008473ffffffffffffffffffffffffffffffffffffffff1673ffffffffffffffffffffffffffffffffffffffff16815260200190815260200160002060008282546119799190612bf7565b92505081905550816002600083815260200190815260200160002060006101000a81548173ffffffffffffffffffffffffffffffffffffffff021916908373ffffffffffffffffffffffffffffffffffffffff160217905550808273ffffffffffffffffffffffffffffffffffffffff168473ffffffffffffffffffffffffffffffffffffffff167fddf252ad1be2c89b69c2b068fc378daa952ba7f163c4a11628f55a4df523b3ef60405160405180910390a4611a38838383611df8565b505050565b8173ffffffffffffffffffffffffffffffffffffffff168373ffffffffffffffffffffffffffffffffffffffff161415611aac576040517f08c379a0000000000000000000000000000000000000000000000000000000008152600401611aa390612968565b60405180910390fd5b80600560008573ffffffffffffffffffffffffffffffffffffffff1673ffffffffffffffffffffffffffffffffffffffff16815260200190815260200160002060008473ffffffffffffffffffffffffffffffffffffffff1673ffffffffffffffffffffffffffffffffffffffff16815260200190815260200160002060006101000a81548160ff0219169083151502179055508173ffffffffffffffffffffffffffffffffffffffff168373ffffffffffffffffffffffffffffffffffffffff167f17307eab39ab6107e8899845ad3d59bd9653f200f220920489ca2b5937696c3183604051611b9d9190612808565b60405180910390a3505050565b611bb58484846117d6565b611bc184848484611dfd565b611c00576040517f08c379a0000000000000000000000000000000000000000000000000000000008152600401611bf7906128c8565b60405180910390fd5b50505050565b606060405180602001604052806000815250905090565b60606000821415611c65576040518060400160405280600181526020017f30000000000000000000000000000000000000000000000000000000000000008152509050611dc5565b600082905060005b60008214611c97578080611c8090612dcb565b915050600a82611c909190612c4d565b9150611c6d565b60008167ffffffffffffffff811115611cd9577f4e487b7100000000000000000000000000000000000000000000000000000000600052604160045260246000fd5b6040519080825280601f01601f191660200182016040528015611d0b5781602001600182028036833780820191505090505b5090505b60008514611dbe57600182611d249190612c7e565b9150600a85611d339190612e14565b6030611d3f9190612bf7565b60f81b818381518110611d7b577f4e487b7100000000000000000000000000000000000000000000000000000000600052603260045260246000fd5b60200101907effffffffffffffffffffffffffffffffffffffffffffffffffffffffffffff1916908160001a905350600a85611db79190612c4d565b9450611d0f565b8093505050505b919050565b60008151905060006a636f6e736f6c652e6c6f679050602083016000808483855afa5050505050565b505050565b505050565b6000611e1e8473ffffffffffffffffffffffffffffffffffffffff16611f94565b15611f87578373ffffffffffffffffffffffffffffffffffffffff1663150b7a02611e476113be565b8786866040518563ffffffff1660e01b8152600401611e6994939291906127bc565b602060405180830381600087803b158015611e8357600080fd5b505af1925050508015611eb457506040513d601f19601f82011682018060405250810190611eb1919061237d565b60015b611f37573d8060008114611ee4576040519150601f19603f3d011682016040523d82523d6000602084013e611ee9565b606091505b50600081511415611f2f576040517f08c379a0000000000000000000000000000000000000000000000000000000008152600401611f26906128c8565b60405180910390fd5b805181602001fd5b63150b7a0260e01b7bffffffffffffffffffffffffffffffffffffffffffffffffffffffff1916817bffffffffffffffffffffffffffffffffffffffffffffffffffffffff191614915050611f8c565b600190505b949350505050565b6000808273ffffffffffffffffffffffffffffffffffffffff163b119050919050565b828054611fc390612d68565b90600052602060002090601f016020900481019282611fe5576000855561202c565b82601f10611ffe57805160ff191683800117855561202c565b8280016001018555821561202c579182015b8281111561202b578251825591602001919060010190612010565b5b5090506120399190612057565b5090565b604051806040016040528060608152602001606081525090565b5b80821115612070576000816000905550600101612058565b5090565b600061208761208284612b41565b612b1c565b90508281526020810184848401111561209f57600080fd5b6120aa848285612d26565b509392505050565b60006120c56120c084612b72565b612b1c565b9050828152602081018484840111156120dd57600080fd5b6120e8848285612d26565b509392505050565b6000813590506120ff8161331b565b92915050565b60008135905061211481613332565b92915050565b60008135905061212981613349565b92915050565b60008151905061213e81613349565b92915050565b600082601f83011261215557600080fd5b8135612165848260208601612074565b91505092915050565b600082601f83011261217f57600080fd5b813561218f8482602086016120b2565b91505092915050565b6000813590506121a781613360565b92915050565b6000602082840312156121bf57600080fd5b60006121cd848285016120f0565b91505092915050565b600080604083850312156121e957600080fd5b60006121f7858286016120f0565b9250506020612208858286016120f0565b9150509250929050565b60008060006060848603121561222757600080fd5b6000612235868287016120f0565b9350506020612246868287016120f0565b925050604061225786828701612198565b9150509250925092565b6000806000806080858703121561227757600080fd5b6000612285878288016120f0565b9450506020612296878288016120f0565b93505060406122a787828801612198565b925050606085013567ffffffffffffffff8111156122c457600080fd5b6122d087828801612144565b91505092959194509250565b600080604083850312156122ef57600080fd5b60006122fd858286016120f0565b925050602061230e85828601612105565b9150509250929050565b6000806040838503121561232b57600080fd5b6000612339858286016120f0565b925050602061234a85828601612198565b9150509250929050565b60006020828403121561236657600080fd5b60006123748482850161211a565b91505092915050565b60006020828403121561238f57600080fd5b600061239d8482850161212f565b91505092915050565b600080604083850312156123b957600080fd5b600083013567ffffffffffffffff8111156123d357600080fd5b6123df8582860161216e565b92505060206123f0858286016120f0565b9150509250929050565b60006020828403121561240c57600080fd5b600061241a84828501612198565b91505092915050565b61242c81612cb2565b82525050565b61243b81612cc4565b82525050565b600061244c82612ba3565b6124568185612bb9565b9350612466818560208601612d35565b61246f81612f01565b840191505092915050565b600061248582612bae565b61248f8185612bca565b935061249f818560208601612d35565b6124a881612f01565b840191505092915050565b60006124be82612bae565b6124c88185612bdb565b93506124d8818560208601612d35565b6124e181612f01565b840191505092915050565b60006124f782612bae565b6125018185612bec565b9350612511818560208601612d35565b80840191505092915050565b600061252a603283612bdb565b915061253582612f12565b604082019050919050565b600061254d602583612bdb565b915061255882612f61565b604082019050919050565b6000612570601c83612bdb565b915061257b82612fb0565b602082019050919050565b6000612593601783612bdb565b915061259e82612fd9565b602082019050919050565b60006125b6602483612bdb565b91506125c182613002565b604082019050919050565b60006125d9601983612bdb565b91506125e482613051565b602082019050919050565b60006125fc602c83612bdb565b91506126078261307a565b604082019050919050565b600061261f603883612bdb565b915061262a826130c9565b604082019050919050565b6000612642602a83612bdb565b915061264d82613118565b604082019050919050565b6000612665602983612bdb565b915061267082613167565b604082019050919050565b6000612688602083612bdb565b9150612693826131b6565b602082019050919050565b60006126ab602c83612bdb565b91506126b6826131df565b604082019050919050565b60006126ce602f83612bdb565b91506126d98261322e565b604082019050919050565b60006126f1602183612bdb565b91506126fc8261327d565b604082019050919050565b6000612714603183612bdb565b915061271f826132cc565b604082019050919050565b60006040830160008301518482036000860152612747828261247a565b91505060208301518482036020860152612761828261247a565b9150508091505092915050565b61277781612d1c565b82525050565b600061278982856124ec565b915061279582846124ec565b91508190509392505050565b60006020820190506127b66000830184612423565b92915050565b60006080820190506127d16000830187612423565b6127de6020830186612423565b6127eb604083018561276e565b81810360608301526127fd8184612441565b905095945050505050565b600060208201905061281d6000830184612432565b92915050565b6000602082019050818103600083015261283d81846124b3565b905092915050565b6000604082019050818103600083015261285f81856124b3565b9050818103602083015261287381846124b3565b90509392505050565b6000606082019050818103600083015261289681866124b3565b905081810360208301526128aa81856124b3565b905081810360408301526128be81846124b3565b9050949350505050565b600060208201905081810360008301526128e18161251d565b9050919050565b6000602082019050818103600083015261290181612540565b9050919050565b6000602082019050818103600083015261292181612563565b9050919050565b6000602082019050818103600083015261294181612586565b9050919050565b60006020820190508181036000830152612961816125a9565b9050919050565b60006020820190508181036000830152612981816125cc565b9050919050565b600060208201905081810360008301526129a1816125ef565b9050919050565b600060208201905081810360008301526129c181612612565b9050919050565b600060208201905081810360008301526129e181612635565b9050919050565b60006020820190508181036000830152612a0181612658565b9050919050565b60006020820190508181036000830152612a218161267b565b9050919050565b60006020820190508181036000830152612a418161269e565b9050919050565b60006020820190508181036000830152612a61816126c1565b9050919050565b60006020820190508181036000830152612a81816126e4565b9050919050565b60006020820190508181036000830152612aa181612707565b9050919050565b60006020820190508181036000830152612ac2818461272a565b905092915050565b6000602082019050612adf600083018461276e565b92915050565b6000606082019050612afa600083018661276e565b612b076020830185612423565b612b14604083018461276e565b949350505050565b6000612b26612b37565b9050612b328282612d9a565b919050565b6000604051905090565b600067ffffffffffffffff821115612b5c57612b5b612ed2565b5b612b6582612f01565b9050602081019050919050565b600067ffffffffffffffff821115612b8d57612b8c612ed2565b5b612b9682612f01565b9050602081019050919050565b600081519050919050565b600081519050919050565b600082825260208201905092915050565b600082825260208201905092915050565b600082825260208201905092915050565b600081905092915050565b6000612c0282612d1c565b9150612c0d83612d1c565b9250827fffffffffffffffffffffffffffffffffffffffffffffffffffffffffffffffff03821115612c4257612c41612e45565b5b828201905092915050565b6000612c5882612d1c565b9150612c6383612d1c565b925082612c7357612c72612e74565b5b828204905092915050565b6000612c8982612d1c565b9150612c9483612d1c565b925082821015612ca757612ca6612e45565b5b828203905092915050565b6000612cbd82612cfc565b9050919050565b60008115159050919050565b60007fffffffff0000000000000000000000000000000000000000000000000000000082169050919050565b600073ffffffffffffffffffffffffffffffffffffffff82169050919050565b6000819050919050565b82818337600083830152505050565b60005b83811015612d53578082015181840152602081019050612d38565b83811115612d62576000848401525b50505050565b60006002820490506001821680612d8057607f821691505b60208210811415612d9457612d93612ea3565b5b50919050565b612da382612f01565b810181811067ffffffffffffffff82111715612dc257612dc1612ed2565b5b80604052505050565b6000612dd682612d1c565b91507fffffffffffffffffffffffffffffffffffffffffffffffffffffffffffffffff821415612e0957612e08612e45565b5b600182019050919050565b6000612e1f82612d1c565b9150612e2a83612d1c565b925082612e3a57612e39612e74565b5b828206905092915050565b7f4e487b7100000000000000000000000000000000000000000000000000000000600052601160045260246000fd5b7f4e487b7100000000000000000000000000000000000000000000000000000000600052601260045260246000fd5b7f4e487b7100000000000000000000000000000000000000000000000000000000600052602260045260246000fd5b7f4e487b7100000000000000000000000000000000000000000000000000000000600052604160045260246000fd5b6000601f19601f8301169050919050565b7f4552433732313a207472616e7366657220746f206e6f6e20455243373231526560008201527f63656976657220696d706c656d656e7465720000000000000000000000000000602082015250565b7f4552433732313a207472616e736665722066726f6d20696e636f72726563742060008201527f6f776e6572000000000000000000000000000000000000000000000000000000602082015250565b7f4552433732313a20746f6b656e20616c7265616479206d696e74656400000000600082015250565b7f6f776e6572206973206e6f74206d73672e73656e646572000000000000000000600082015250565b7f4552433732313a207472616e7366657220746f20746865207a65726f2061646460008201527f7265737300000000000000000000000000000000000000000000000000000000602082015250565b7f4552433732313a20617070726f766520746f2063616c6c657200000000000000600082015250565b7f4552433732313a206f70657261746f7220717565727920666f72206e6f6e657860008201527f697374656e7420746f6b656e0000000000000000000000000000000000000000602082015250565b7f4552433732313a20617070726f76652063616c6c6572206973206e6f74206f7760008201527f6e6572206e6f7220617070726f76656420666f7220616c6c0000000000000000602082015250565b7f4552433732313a2062616c616e636520717565727920666f7220746865207a6560008201527f726f206164647265737300000000000000000000000000000000000000000000602082015250565b7f4552433732313a206f776e657220717565727920666f72206e6f6e657869737460008201527f656e7420746f6b656e0000000000000000000000000000000000000000000000602082015250565b7f4552433732313a206d696e7420746f20746865207a65726f2061646472657373600082015250565b7f4552433732313a20617070726f76656420717565727920666f72206e6f6e657860008201527f697374656e7420746f6b656e0000000000000000000000000000000000000000602082015250565b7f4552433732314d657461646174613a2055524920717565727920666f72206e6f60008201527f6e6578697374656e7420746f6b656e0000000000000000000000000000000000602082015250565b7f4552433732313a20617070726f76616c20746f2063757272656e74206f776e6560008201527f7200000000000000000000000000000000000000000000000000000000000000602082015250565b7f4552433732313a207472616e736665722063616c6c6572206973206e6f74206f60008201527f776e6572206e6f7220617070726f766564000000000000000000000000000000602082015250565b61332481612cb2565b811461332f57600080fd5b50565b61333b81612cc4565b811461334657600080fd5b50565b61335281612cd0565b811461335d57600080fd5b50565b61336981612d1c565b811461337457600080fd5b5056fea2646970667358221220c45f72022750cfc8df2d7c9530e47d884097397eda8e1cbadd3381289e7b824064736f6c63430008040033",
  "linkReferences": {},
  "deployedLinkReferences": {}
}